{
  "transactions": [
    {
      "hash": "0x9d31665cd61f1a32dbd2e0238df86aba8f4d37a6432a7c63bbb2420cc407a174",
      "transactionType": "CALL",
      "contractName": "SignProtocolIssuer",
      "contractAddress": "0x217F2EEBc1E0898a97B82364cabe814Ec2E01Cb3",
      "function": "setSchemaID(uint64)",
      "arguments": [
        "378"
      ],
      "transaction": {
        "type": "0x00",
        "from": "0x29d5ab1282ee60d9be352d625a65b4f0939a46a1",
        "to": "0x217f2eebc1e0898a97b82364cabe814ec2e01cb3",
        "gas": "0x9b28",
        "value": "0x0",
        "data": "0x05ca8ee3000000000000000000000000000000000000000000000000000000000000017a",
        "nonce": "0x18"
      },
      "additionalContracts": [],
      "isFixedGasLimit": false
    },
    {
      "hash": "0x8c0b5e15bdd08882ff7424d7aea5c4a95fc2f742ecbf14f7c13ac93d679c4b7f",
      "transactionType": "CALL",
      "contractName": "SignProtocolIssuer",
      "contractAddress": "0x217F2EEBc1E0898a97B82364cabe814Ec2E01Cb3",
      "function": "createAndSendAttestation(string,address,uint256,bytes[])",
      "arguments": [
        "\"test\"",
        "0x4e4af2a21ebf62850fD99Eb6253E1eFBb56098cD",
        "0",
        "[0x000000000000000000000000217f2eebc1e0898a97b82364cabe814ec2e01cb3]"
      ],
      "transaction": {
        "type": "0x00",
        "from": "0x29d5ab1282ee60d9be352d625a65b4f0939a46a1",
        "to": "0x217f2eebc1e0898a97b82364cabe814ec2e01cb3",
        "gas": "0x67260",
        "value": "0x0",
        "data": "0x5263290800000000000000000000000000000000000000000000000000000000000000800000000000000000000000004e4af2a21ebf62850fd99eb6253e1efbb56098cd000000000000000000000000000000000000000000000000000000000000000000000000000000000000000000000000000000000000000000000000000000c000000000000000000000000000000000000000000000000000000000000000047465737400000000000000000000000000000000000000000000000000000000000000000000000000000000000000000000000000000000000000000000000100000000000000000000000000000000000000000000000000000000000000200000000000000000000000000000000000000000000000000000000000000020000000000000000000000000217f2eebc1e0898a97b82364cabe814ec2e01cb3",
        "nonce": "0x19"
      },
      "additionalContracts": [],
      "isFixedGasLimit": false
    }
  ],
  "receipts": [],
  "libraries": [],
  "pending": [
    "0x9d31665cd61f1a32dbd2e0238df86aba8f4d37a6432a7c63bbb2420cc407a174",
    "0x8c0b5e15bdd08882ff7424d7aea5c4a95fc2f742ecbf14f7c13ac93d679c4b7f"
  ],
  "returns": {},
  "timestamp": 1725200479,
  "chain": 84532,
  "multi": false,
  "commit": "2289eb4"
}