{
  "transactions": [
    {
      "hash": "0x9d31665cd61f1a32dbd2e0238df86aba8f4d37a6432a7c63bbb2420cc407a174",
      "transactionType": "CALL",
      "contractName": "SignProtocolIssuer",
      "contractAddress": "0x217F2EEBc1E0898a97B82364cabe814Ec2E01Cb3",
      "function": "setSchemaID(uint64)",
      "arguments": [
        "378"
      ],
      "transaction": {
        "type": "0x00",
        "from": "0x29d5ab1282ee60d9be352d625a65b4f0939a46a1",
        "to": "0x217f2eebc1e0898a97b82364cabe814ec2e01cb3",
        "gas": "0x9b28",
        "value": "0x0",
        "data": "0x05ca8ee3000000000000000000000000000000000000000000000000000000000000017a",
        "nonce": "0x18"
      },
      "additionalContracts": [],
      "isFixedGasLimit": false
    },
    {
      "hash": "0x8c0b5e15bdd08882ff7424d7aea5c4a95fc2f742ecbf14f7c13ac93d679c4b7f",
      "transactionType": "CALL",
      "contractName": "SignProtocolIssuer",
      "contractAddress": "0x217F2EEBc1E0898a97B82364cabe814Ec2E01Cb3",
      "function": "createAndSendAttestation(string,address,uint256,bytes[])",
      "arguments": [
        "\"test\"",
        "0x4e4af2a21ebf62850fD99Eb6253E1eFBb56098cD",
        "0",
        "[0x000000000000000000000000217f2eebc1e0898a97b82364cabe814ec2e01cb3]"
      ],
      "transaction": {
        "type": "0x00",
        "from": "0x29d5ab1282ee60d9be352d625a65b4f0939a46a1",
        "to": "0x217f2eebc1e0898a97b82364cabe814ec2e01cb3",
        "gas": "0x67260",
        "value": "0x0",
        "data": "0x5263290800000000000000000000000000000000000000000000000000000000000000800000000000000000000000004e4af2a21ebf62850fd99eb6253e1efbb56098cd000000000000000000000000000000000000000000000000000000000000000000000000000000000000000000000000000000000000000000000000000000c000000000000000000000000000000000000000000000000000000000000000047465737400000000000000000000000000000000000000000000000000000000000000000000000000000000000000000000000000000000000000000000000100000000000000000000000000000000000000000000000000000000000000200000000000000000000000000000000000000000000000000000000000000020000000000000000000000000217f2eebc1e0898a97b82364cabe814ec2e01cb3",
        "nonce": "0x19"
      },
      "additionalContracts": [],
      "isFixedGasLimit": false
    }
  ],
  "receipts": [
    {
      "transactionHash": "0x9d31665cd61f1a32dbd2e0238df86aba8f4d37a6432a7c63bbb2420cc407a174",
      "transactionIndex": "0xa",
      "blockHash": "0xa257b873978f8433a2acbc945ec31ef9cd8d2dc141ddecd8cee773189e82dc51",
      "blockNumber": "0xe08cc0",
      "from": "0x29d5ab1282ee60d9bE352D625a65B4f0939a46a1",
      "to": "0x217F2EEBc1E0898a97B82364cabe814Ec2E01Cb3",
      "cumulativeGasUsed": "0x200ad4",
      "gasUsed": "0x7055",
      "contractAddress": null,
      "logs": [],
      "status": "0x1",
      "logsBloom": "0x00000000000000000000000000000000000000000000000000000000000000000000000000000000000000000000000000000000000000000000000000000000000000000000000000000000000000000000000000000000000000000000000000000000000000000000000000000000000000000000000000000000000000000000000000000000000000000000000000000000000000000000000000000000000000000000000000000000000000000000000000000000000000000000000000000000000000000000000000000000000000000000000000000000000000000000000000000000000000000000000000000000000000000000000000000000",
      "type": "0x0",
      "effectiveGasPrice": "0xf437c"
    },
    {
      "transactionHash": "0x8c0b5e15bdd08882ff7424d7aea5c4a95fc2f742ecbf14f7c13ac93d679c4b7f",
      "transactionIndex": "0xb",
      "blockHash": "0xa257b873978f8433a2acbc945ec31ef9cd8d2dc141ddecd8cee773189e82dc51",
      "blockNumber": "0xe08cc0",
      "from": "0x29d5ab1282ee60d9bE352D625a65B4f0939a46a1",
      "to": "0x217F2EEBc1E0898a97B82364cabe814Ec2E01Cb3",
      "cumulativeGasUsed": "0x24b5ac",
      "gasUsed": "0x4aad8",
      "contractAddress": null,
      "logs": [
        {
          "address": "0x4e4af2a21ebf62850fD99Eb6253E1eFBb56098cD",
          "topics": [
            "0x38b331f00373c8b0f9af5a4273ca1b91e894fec999bfa4ec787e8c90a5c8b05c"
          ],
          "data": "0x000000000000000000000000000000000000000000000000000000000000041b00000000000000000000000000000000000000000000000000000000000000400000000000000000000000000000000000000000000000000000000000000000",
          "blockHash": "0xa257b873978f8433a2acbc945ec31ef9cd8d2dc141ddecd8cee773189e82dc51",
          "blockNumber": "0xe08cc0",
          "transactionHash": "0x8c0b5e15bdd08882ff7424d7aea5c4a95fc2f742ecbf14f7c13ac93d679c4b7f",
          "transactionIndex": "0xb",
          "logIndex": "0x30",
          "removed": false
        },
        {
          "address": "0x217F2EEBc1E0898a97B82364cabe814Ec2E01Cb3",
          "topics": [
            "0xa4576b2bdae58558b36c12f46b47cc8d19f294cff769aeaab26c4ff23c0f5a75"
          ],
          "data": "0x00000000000000000000000000000000000000000000000000000000000000600000000000000000000000004e4af2a21ebf62850fd99eb6253e1efbb56098cd000000000000000000000000000000000000000000000000000000000000041b00000000000000000000000000000000000000000000000000000000000000047465737400000000000000000000000000000000000000000000000000000000",
          "blockHash": "0xa257b873978f8433a2acbc945ec31ef9cd8d2dc141ddecd8cee773189e82dc51",
          "blockNumber": "0xe08cc0",
          "transactionHash": "0x8c0b5e15bdd08882ff7424d7aea5c4a95fc2f742ecbf14f7c13ac93d679c4b7f",
          "transactionIndex": "0xb",
          "logIndex": "0x31",
          "removed": false
        }
      ],
      "status": "0x1",
      "logsBloom": "0x60000000000000000000000000000000000000000000000000000000000000000000080000000020000000000000000000000001000000000000000000040100000000000000000000000000000000000000000000200000000000000000000000000000000000000000000000000000000000000000000000000000000000000000000000000000000000000000000000000000000000000000000000000000000000000000000000000000000000000000000000000000000000000000000000000000000000001000000000000000000000000000000200000000000000000000000000000000400004000000000000000000000000000000000000000000",
      "type": "0x0",
      "effectiveGasPrice": "0xf437c"
    }
  ],
  "libraries": [],
  "pending": [],
  "returns": {},
  "timestamp": 1725200486,
  "chain": 84532,
  "multi": false,
  "commit": "2289eb4"
}