{
  "transactions": [
    {
      "hash": "0xe547b293a5e5384d17c8efa11992e230b0cb430304628e3eaf729f0db555bba5",
      "transactionType": "CREATE",
      "contractName": "SignProtocolIssuer",
      "contractAddress": "0x217F2EEBc1E0898a97B82364cabe814Ec2E01Cb3",
      "function": null,
      "arguments": null,
      "transaction": {
        "type": "0x00",
        "from": "0x29d5ab1282ee60d9be352d625a65b4f0939a46a1",
        "gas": "0xbec7c",
        "value": "0x0",
        "data": "0x608060405234801561001057600080fd5b50338061003757604051631e4fbdf760e01b81526000600482015260240160405180910390fd5b61004081610046565b50610096565b600080546001600160a01b038381166001600160a01b0319831681178455604051919092169283917f8be0079c531659141344cd1fd0a4f28419497f9722a3daafe3b4186f6b6457e09190a35050565b610972806100a56000396000f3fe608060405234801561001057600080fd5b50600436106100935760003560e01c80638da5cb5b116100665780638da5cb5b146100ff5780638e9d660f14610124578063a8c5dc3314610137578063b8662b231461014a578063f2fde38b1461017357600080fd5b806305ca8ee314610098578063075b1a09146100ad57806352632908146100e4578063715018a6146100f7575b600080fd5b6100ab6100a636600461041c565b610186565b005b6001546100c790600160a01b90046001600160401b031681565b6040516001600160401b0390911681526020015b60405180910390f35b6100ab6100f23660046104a7565b6101bb565b6100ab610309565b6000546001600160a01b03165b6040516001600160a01b0390911681526020016100db565b6100ab61013236600461055e565b61031d565b60015461010c906001600160a01b031681565b61010c61015836600461055e565b6002602052600090815260409020546001600160a01b031681565b6100ab61018136600461055e565b610347565b61018e61038a565b600180546001600160401b03909216600160a01b0267ffffffffffffffff60a01b19909216919091179055565b6000868686866040516020016101d494939291906105a2565b60408051808303601f1901815261014083018252600154600160a01b90046001600160401b031683526000602084018190529183018290526060830182905230608084015260a0830182905292509060c081018281526000602082015260400161023e8587610618565b815260200183905260015460405163b82916cb60e01b81529192506000916001600160a01b039091169063b82916cb9061027c9085906004016107ae565b6020604051808303816000875af115801561029b573d6000803e3d6000fd5b505050506040513d601f19601f820116820180604052508101906102bf91906108e1565b90507fa4576b2bdae58558b36c12f46b47cc8d19f294cff769aeaab26c4ff23c0f5a75898989846040516102f694939291906108fe565b60405180910390a1505050505050505050565b61031161038a565b61031b60006103b7565b565b61032561038a565b600180546001600160a01b0319166001600160a01b0392909216919091179055565b61034f61038a565b6001600160a01b03811661037e57604051631e4fbdf760e01b8152600060048201526024015b60405180910390fd5b610387816103b7565b50565b6000546001600160a01b0316331461031b5760405163118cdaa760e01b8152336004820152602401610375565b600080546001600160a01b038381166001600160a01b0319831681178455604051919092169283917f8be0079c531659141344cd1fd0a4f28419497f9722a3daafe3b4186f6b6457e09190a35050565b6001600160401b038116811461038757600080fd5b60006020828403121561042e57600080fd5b813561043981610407565b9392505050565b80356001600160a01b038116811461045757600080fd5b919050565b60008083601f84011261046e57600080fd5b5081356001600160401b0381111561048557600080fd5b6020830191508360208260051b85010111156104a057600080fd5b9250929050565b600080600080600080608087890312156104c057600080fd5b86356001600160401b03808211156104d757600080fd5b818901915089601f8301126104eb57600080fd5b8135818111156104fa57600080fd5b8a602082850101111561050c57600080fd5b6020830198508097505061052260208a01610440565b955060408901359450606089013591508082111561053f57600080fd5b5061054c89828a0161045c565b979a9699509497509295939492505050565b60006020828403121561057057600080fd5b61043982610440565b81835281816020850137506000828201602090810191909152601f909101601f19169091010190565b6060815260006105b6606083018688610579565b6001600160a01b03949094166020830152506040015292915050565b634e487b7160e01b600052604160045260246000fd5b604051601f8201601f191681016001600160401b0381118282101715610610576106106105d2565b604052919050565b60006001600160401b0380841115610632576106326105d2565b8360051b60206106438183016105e8565b86815291850191818101903684111561065b57600080fd5b865b848110156106e0578035868111156106755760008081fd5b8801601f36818301126106885760008081fd5b81358881111561069a5761069a6105d2565b6106ab818301601f191688016105e8565b915080825236878285010111156106c25760008081fd5b8087840188840137600090820187015284525091830191830161065d565b50979650505050505050565b6004811061070a57634e487b7160e01b600052602160045260246000fd5b9052565b6000815180845260005b8181101561073457602081850181015186830182015201610718565b506000602082860101526020601f19601f83011685010191505092915050565b60008282518085526020808601955060208260051b8401016020860160005b848110156107a157601f1986840301895261078f83835161070e565b98840198925090830190600101610773565b5090979650505050505050565b608081526107c86080820183516001600160401b03169052565b600060208301516107e460a08401826001600160401b03169052565b5060408301516001600160401b0390811660c084015260608401511660e083015260808301516001600160a01b0381166101008085019190915260a0850151915061012061083c818601846001600160401b03169052565b60c08601519250610140610852818701856106ec565b60e0870151151561016087015282870151610180870191909152925061087c6101c0860184610754565b90860151858203607f19016101a0870152909250905061089c828261070e565b91505082810360208401526108b5816000815260200190565b838103604085015260008152905060208101838103606085015260008152905060208101949350505050565b6000602082840312156108f357600080fd5b815161043981610407565b606081526000610912606083018688610579565b6001600160a01b03949094166020830152506001600160401b03919091166040909101529291505056fea2646970667358221220a54e40541042b13cb83acba767fed0793581677cd07cf65187583bea3fec60e264736f6c63430008180033",
        "nonce": "0x14"
      },
      "additionalContracts": [],
      "isFixedGasLimit": false
    },
    {
      "hash": "0x1e34ff6c1e6cdfbb8359db4927a95ef33de8e23fe62204a6dfa13ca4699c949e",
      "transactionType": "CALL",
      "contractName": "contracts/SignProtocolIssuer.sol:SignProtocolIssuer",
      "contractAddress": "0x217F2EEBc1E0898a97B82364cabe814Ec2E01Cb3",
      "function": "setSPInstance(address)",
      "arguments": [
        "0x4e4af2a21ebf62850fD99Eb6253E1eFBb56098cD"
      ],
      "transaction": {
        "type": "0x00",
        "from": "0x29d5ab1282ee60d9be352d625a65b4f0939a46a1",
        "to": "0x217f2eebc1e0898a97b82364cabe814ec2e01cb3",
        "gas": "0x1074d",
        "value": "0x0",
        "data": "0x8e9d660f0000000000000000000000004e4af2a21ebf62850fd99eb6253e1efbb56098cd",
        "nonce": "0x15"
      },
      "additionalContracts": [],
      "isFixedGasLimit": false
    },
    {
      "hash": "0x9d1ab016e15dfccaacf6538e652d5ec6fc9bdb14f9a87116230475f4f5287b9d",
      "transactionType": "CALL",
      "contractName": "contracts/SignProtocolIssuer.sol:SignProtocolIssuer",
      "contractAddress": "0x217F2EEBc1E0898a97B82364cabe814Ec2E01Cb3",
      "function": "setSchemaID(uint64)",
      "arguments": [
        "377"
      ],
      "transaction": {
        "type": "0x00",
        "from": "0x29d5ab1282ee60d9be352d625a65b4f0939a46a1",
        "to": "0x217f2eebc1e0898a97b82364cabe814ec2e01cb3",
        "gas": "0x9b28",
        "value": "0x0",
        "data": "0x05ca8ee30000000000000000000000000000000000000000000000000000000000000179",
        "nonce": "0x16"
      },
      "additionalContracts": [],
      "isFixedGasLimit": false
    }
  ],
  "receipts": [
    {
      "transactionHash": "0xe547b293a5e5384d17c8efa11992e230b0cb430304628e3eaf729f0db555bba5",
      "transactionIndex": "0x3",
      "blockHash": "0xb127b8a2c28e0e78646fa9e946b085369611c81f554626ec82201a13d4f9dd02",
      "blockNumber": "0xe08628",
      "from": "0x29d5ab1282ee60d9bE352D625a65B4f0939a46a1",
      "to": null,
      "cumulativeGasUsed": "0x144872",
      "gasUsed": "0x92cb3",
      "contractAddress": "0x217F2EEBc1E0898a97B82364cabe814Ec2E01Cb3",
      "logs": [
        {
          "address": "0x217F2EEBc1E0898a97B82364cabe814Ec2E01Cb3",
          "topics": [
            "0x8be0079c531659141344cd1fd0a4f28419497f9722a3daafe3b4186f6b6457e0",
            "0x0000000000000000000000000000000000000000000000000000000000000000",
            "0x00000000000000000000000029d5ab1282ee60d9be352d625a65b4f0939a46a1"
          ],
          "data": "0x",
          "blockHash": "0xb127b8a2c28e0e78646fa9e946b085369611c81f554626ec82201a13d4f9dd02",
          "blockNumber": "0xe08628",
          "transactionHash": "0xe547b293a5e5384d17c8efa11992e230b0cb430304628e3eaf729f0db555bba5",
          "transactionIndex": "0x3",
          "logIndex": "0xe",
          "removed": false
        }
      ],
      "status": "0x1",
      "logsBloom": "0x40000000000000000000000000000000000000000000000000800000000000000000000000000000000000000000000000000001000000000000000000000000000000000000000000000000000000000001000000000000000000000000000000000000020000000000000400000800000000000000000000000000000000400000000000000000000000000000000000000000000000000000000000000008000000000000000000000000000000000000000000000000000000000000000000000000000000001000000000000000000000001000000000000000000020000000000000000000000000000000000000000000000000000000000000000000",
      "type": "0x0",
      "effectiveGasPrice": "0xf437d"
    },
    {
      "transactionHash": "0x1e34ff6c1e6cdfbb8359db4927a95ef33de8e23fe62204a6dfa13ca4699c949e",
      "transactionIndex": "0x4",
      "blockHash": "0xb127b8a2c28e0e78646fa9e946b085369611c81f554626ec82201a13d4f9dd02",
      "blockNumber": "0xe08628",
      "from": "0x29d5ab1282ee60d9bE352D625a65B4f0939a46a1",
      "to": "0x217F2EEBc1E0898a97B82364cabe814Ec2E01Cb3",
      "cumulativeGasUsed": "0x14fc7b",
      "gasUsed": "0xb409",
      "contractAddress": null,
      "logs": [],
      "status": "0x1",
      "logsBloom": "0x00000000000000000000000000000000000000000000000000000000000000000000000000000000000000000000000000000000000000000000000000000000000000000000000000000000000000000000000000000000000000000000000000000000000000000000000000000000000000000000000000000000000000000000000000000000000000000000000000000000000000000000000000000000000000000000000000000000000000000000000000000000000000000000000000000000000000000000000000000000000000000000000000000000000000000000000000000000000000000000000000000000000000000000000000000000",
      "type": "0x0",
      "effectiveGasPrice": "0xf437d"
    },
    {
      "transactionHash": "0x9d1ab016e15dfccaacf6538e652d5ec6fc9bdb14f9a87116230475f4f5287b9d",
      "transactionIndex": "0x5",
      "blockHash": "0xb127b8a2c28e0e78646fa9e946b085369611c81f554626ec82201a13d4f9dd02",
      "blockNumber": "0xe08628",
      "from": "0x29d5ab1282ee60d9bE352D625a65B4f0939a46a1",
      "to": "0x217F2EEBc1E0898a97B82364cabe814Ec2E01Cb3",
      "cumulativeGasUsed": "0x156cd0",
      "gasUsed": "0x7055",
      "contractAddress": null,
      "logs": [],
      "status": "0x1",
      "logsBloom": "0x00000000000000000000000000000000000000000000000000000000000000000000000000000000000000000000000000000000000000000000000000000000000000000000000000000000000000000000000000000000000000000000000000000000000000000000000000000000000000000000000000000000000000000000000000000000000000000000000000000000000000000000000000000000000000000000000000000000000000000000000000000000000000000000000000000000000000000000000000000000000000000000000000000000000000000000000000000000000000000000000000000000000000000000000000000000",
      "type": "0x0",
      "effectiveGasPrice": "0xf437d"
    }
  ],
  "libraries": [],
  "pending": [],
  "returns": {},
  "timestamp": 1725197127,
  "chain": 84532,
  "multi": false,
  "commit": "2289eb4"
}